:020000040800F2
:1000000040160020190C0008C3300008050C000839
:10001000050C0008050C0008050C00080000000095
:10002000000000000000000000000000D90C0008E3
:10003000050C000800000000790C0008E51B000812
:10004000610E0008610E0008610E0008610E0008D4
:10005000610E0008610E0008610E0008610E0008C4
:10006000610E0008610E0008610E0008610E0008B4
:10007000610E0008610E0008610E0008610E0008A4
:10008000610E0008610E0008610E0008610E000894
:10009000610E0008610E0008610E0008610E000884
:1000A000610E0008610E0008610E0008610E000874
:1000B000610E0008610E0008610E0008610E000864
:1000C000610E0008610E0008610E0008610E000854
:1000D000610E0008610E0008610E0008610E000844
:1000E000610E0008610E0008610E0008610E000834
:1000F000610E0008610E0008610E0008610E000824
:10010000610E0008610E0008610E0008610E000813
:10011000610E0008610E0008610E0008610E000803
:10012000610E0008610E0008610E0008610E0008F3
:10013000610E0008610E0008610E0008610E0008E3
:10014000610E0008610E0008610E0008610E0008D3
:10015000610E0008610E0008610E0008610E0008C3
:10016000610E0008610E0008610E0008610E0008B3
:10017000610E0008610E0008610E0008610E0008A3
:10018000610E0008610E0008610E0008610E000893
:08019000610E0008610E000879
:1001980053B94AB9002908BF00281CBF4FF0FF31E6
:1001A8004FF0FF3000F00CB8ADF1080C6DE904CE4B
:1001B80000F008F8DDF804E0DDE9022304B0704738
:1001C800704700BF2DE9F04786468C460846089ED2
:1001D800154674461946002B40F0C2808542B2FA93
:1001E80082F245D94AB1C2F1200300FA02FC2EFA84
:1001F80003F3954043EA0C0C94404FEA154EA8B21D
:10020800BCFBFEF8230C0EFB18CC08FB00F943EAF4
:100218000C43994528D9EB1808F1FF3704D29945C2
:1002280002D9A8F102072B44A3EB0903A4B2B3FB3C
:10023800FEFC0EFB1C330CFB00F044EA0344A04216
:1002480014D92C190CF1FF3304D2A04202D9ACF115
:1002580002032C44241A43EA07401EB1D440002369
:1002680034607360BDE8F0874746DDE76346F1E731
:1002780092BB431B01214FEA154EAFB2B3FBFEFC04
:10028800200C0EFB1C330CFB07F840EA034398458F
:1002980062D9EB180CF1FF3004D2984502D9ACF1C1
:1002A80002002B44A3EB0803A4B2B3FBFEFC0EFB35
:1002B8001C330CFB07F744EA0344A7424ED92C1918
:1002C8000CF1FF3304D2A74202D9ACF102032C444B
:1002D800E41B43EA0040C0E7C2F1200320FA03F11F
:1002E800954090402EFA03F303434FEA154EAFB200
:1002F800B1FBFEFC0EFB1C10190C0CFB07F841EAC5
:100308000041884504FA02F422D969180CF1FF303B
:1003180004D2884502D9ACF102002944A1EB0801B6
:100328009BB2B1FBFEFC0EFB1C110CFB07F743EA6A
:1003380001439F420ED9EB180CF1FF3104D29F42C2
:1003480002D9ACF102012B44DB1B41EA004192E7E0
:100358006046E3E76146F7E76046A3E76346B7E729
:10036800834206D916B9002108467BE7C6E900E0B2
:10037800F9E7B3FA83F78FB9834201D3724508D8F6
:10038800BEEB020460EB030301209C461EB900216A
:1003980068E73846FAE7C6E9004CF8E7C7F1200CE9
:1003A800BB4022FA0CF41C432EFA0CF120FA0CF391
:1003B800B84001434FEA14490EFA07F5B3FBF9F8C0
:1003C8001FFA84FE09FB18300B0C08FB0EFA43EAEF
:1003D80000439A4502FA07F240D9E31808F1FF30C2
:1003E80004D29A4502D9A8F102002344A3EB0A03D8
:1003F80089B2B3FBF9F809FB183308FB0EFE41EA92
:1004080003418E452CD9611808F1FF3304D28E457B
:1004180002D9A8F10203214443EA0040A0FB029854
:10042800A1EB0E014145CE46434602D306D14D45C8
:1004380004D2B9EB020E68EB04030138002EA6D0F3
:10044800B5EB0E0261EB030101FA0CFC22FA07F38B
:100458004CEA0303F940C6E9003198E74046C5E78E
:100468004346D9E708B5044C204602F010FE4FF485
:100478007A7002F087FDF7E70E44000810B52448AB
:1004880003F0C2FA30B9234802F001FE6FF01204FB
:10049800204610BD204803F0B7FA08B91F48F3E713
:1004A8001F4803F0B1FA08B91E48EDE71A4803F0EF
:1004B800ABFA08B91C48E7E71C484FF4803102F052
:1004C80066FD041E03DA1A4802F0E1FDE0E7194868
:1004D8004FF4803102F05BFD041E01DA1648F3E7A1
:1004E80016484FF4003102F052FD041E01DA144898
:1004F800EAE714484FF4003102F049FD041E01DA1E
:100508001148E1E7114802F0C2FD0024C0E700BF2E
:10051800183E000824440008343E00083844000807
:10052800503E00084C44000861440008104200088E
:1005380076440008084200088F440008004200087A
:10054800A8440008F8410008C2440008DC44000838
:1005580013B5044683685B6C93B9A3685B6BA3B956
:10056800A3689B697BB101220DF1070120469847DA
:10057800002808DD9DF80710064802F088FD02E013
:1005880098470028E9D102B010BD204698470028B6
:10059800F9D0E5E7F744000810B50D4C0D48206088
:1005A80003F032FA20B90C48BDE8104002F06FBDE4
:1005B8002068836823B19B6C13B1084900229847CF
:1005C800206883689B6A03B198470548ECE700BF39
:1005D800B0020020883E0008FA44000859050008C7
:1005E8000C45000810B588B0002200230024CDE98E
:1005F80006230223CDE90334CDE90144054B06491E
:1006080000944FF48062054801F0E0FD204608B0F0
:1006180010BD00BF6D0400084004002080000020C9
:10062800014B1B68184700BF00000020014B1860F1
:10063800704700BF0000002030B585B004460D4665
:1006480010220021684603F0B2FA02238DF8023026
:100658002A46044B01932146684602F02BFA05B05E
:1006680030BD00BF2906000880B505460E4617466E
:10067800984601F0B9FF034603F004FBDFF8189031
:10068800044649F80030424630463946A84754F8EF
:10069800090000F0D7FA00BF08000000034A5368B9
:1006A80023F0020353600020704700BF002004E0DD
:1006B800084B1A6842F480721A601A6842F4007291
:1006C8001A601A6842F480621A60034B034A1A607F
:1006D800704700BF003C0240440000200024F400A2
:1006E800014B0360002070471842000808B5034812
:1006F800034A0021121A02F0D8FC08BD800000202D
:100708002C0400200748084A084908B5121A02F0C4
:10071800CEFC0748074A0849BDE80840121A02F00B
:10072800C6BC00BF0000002080000020784A0008F6
:100738000000002000000020784A000838B505466F
:100748000C4699B1D1E901230F48096802F09FFCD2
:10075800D4E90423E1680D4802F099FCE1690C48EA
:1007680002F095FCA1690B4802F091FC012D05D11E
:10077800EFF305810848103902F089FC2146284624
:10078800BDE8384001F0A8BB2045000850450008E6
:100798008045000890450008BF45000830BFFFF7B6
:1007A800FDBF00BF2DE9F0410B4EDFF8308006EBAE
:1007B8000807CC1B054632460949204603F0E9F9EB
:1007C800A01942460021083C03F0F1F92C6707F113
:1007D8000800BDE8F08100BF000000000400000030
:1007E800F0410008054B5A699B689A421FBF044AAA
:1007F800536843F080535360704700BFFC030020E8
:1008080000ED00E02DE9F843324D80463248894634
:10081800174602F03CFCAB6ADE0622D52F4802F0F0
:1008280036FC1124AB6A1D0703D52D4802F02FFCB6
:100838001224284DAB6A980715D52A4802F027FCE0
:100848006E6BAB6A190642D52748314602F01FFC89
:10085800B9F1000F03D0AB6A23F08003AB62132415
:1008680003E01024DEE76FF015061A4DAB6ADA07CD
:1008780003D51E4802F00BFC1424AB6A9B0603D573
:100888001B4802F004FC1524124B9A6AD50602D4C0
:100898009A6A90070AD55B68190507D5414630461C
:1008A80000F094FA10B180F309880224094B9A6A7F
:1008B800920642BF5A6A22F400525A629A6A42F079
:1008C800FF029A6200233B702046BDE8F8836FF070
:1008D8001506C4E700ED00E0D3450008EA45000826
:1008E8001E460008324600084B46000862460008CB
:1008F8008246000810B51D4C1D4802F0C8FBA36ACB
:10090800990130D51B4802F0C2FB1E20A36ADA0108
:1009180003D5194802F0BBFB1F20144CA36A1B0324
:1009280003D5164802F0B3FB2120A36A590303D567
:10093800134802F0ACFB22200C4CA36A9A0303D59F
:10094800104802F0A4FB2320A36ADB0303D50E485A
:1009580002F09DFB2420054A936A6FEA03436FEA7D
:100968001343936210BD1D20D0E700BF00ED00E0E7
:10097800B2460008CB460008DF460008FA460008E1
:10098800194700083F4700085A47000870B5244C2B
:10099800064624480D4602F07AFBA36AD90435D5E9
:1009A800214802F074FB1720A36A1A0503D51F48D3
:1009B80002F06DFB18201A4CA36A9B050FD51C4842
:1009C80002F065FBA16BA36A180407D5194802F069
:1009D8005EFB1EB1A36A23F40043A3621920104CE6
:1009E800A36A590503D5144802F051FB1A20A36ADB
:1009F800DA050DD5114802F04AFB1B20084A936A14
:100A080043F47F43936200232B7070BD1620CBE71D
:100A1800A36A9B04F2D50A4802F039FB1C20EDE7D3
:100A280000ED00E0864700089D4700081E460008C4
:100A3800AF470008C9470008DF470008FB47000820
:100A4800824600082DE9F0415B4B5F688AB0044696
:100A5800C7F30806002585F31188BFF36F8F02F0EE
:100A68007F43B3F17F4F06D102F00C03082B13D15B
:100A7800524802F00CFB00252C464FF00008F31EEC
:100A88008DF80780092B00F28680DFE803F00A7AE8
:100A98007E7684848484848210074CBF0C460125AA
:100AA800EBE74748444E02F0F2FA8DF80780F36A04
:100AB8009A0704D5434802F0EAFA002330E0F36AC3
:100AC800002B01DA4048F6E7F36A5B00F5D53F48AA
:100AD80002F0DDFA7369A26943F480737361BFF3AE
:100AE8004F8FBFF36F8F736932F8022C23F4807332
:100AF8007361BFF34F8FBFF36F8F4DF602739A4246
:100B080009D0B36ADBB253B30DF1070201212046C5
:100B1800FFF778FE33E021682D4802F0B8FA236821
:100B28009DF80720C2B902AE04F120072068616869
:100B3800324603C20834BC421646F7D1099AB5B307
:100B4800C2F3080121B96FEA52226FEA42220992E0
:100B580002A91846FFF7F2FD0AB0BDE8F081B36AB2
:100B680013F47F4F05D00DF107010120FFF70EFFA9
:100B780005E0B36AB3F5803F9FD3FFF7BBFE03469A
:100B8800CEE70DF107020021C1E70DF107010020B2
:100B9800ECE710488FE7104B1049114817F4F87F1D
:100BA800A6F1100218BF194602F071FA85E722F47F
:100BB800FF7222F00102CAE700ED00E04248000897
:100BC8006E48000886480008A8480008B74800088A
:100BD800D7480008F44800082948000814480008C5
:100BE80019490008044B5A6942F010025A615A69BF
:100BF80022F008025A61704700ED00E0EFF3088028
:100C0800EFF3098101B57246FFF71CFF01BD00BF74
:100C18000A4880F30888102080F3118808484FF4A8
:100C28000461401880F30988EFF314800221084317
:100C380080F31488BFF36F8F00F090F840160020FF
:100C480080080020084B9B6883420BD1EFF3058393
:100C580043B1064B5A6842F080525A605A6A22F4ED
:100C680000425A6201F0C6BCFC03002000ED00E01F
:100C780014498A684FF030001044EFF3098C80E87B
:100C8800F01F102080F31288BFF36F8F0E4F4FF0C4
:100C980000664A698A603E60106F0C4C2060506F95
:100CA8000023536780F3118804B5104600F0F2F86A
:100CB800BDE8044002F1300090E8F01F8CF3098889
:100CC80070470000FC03002004ED00E0B40200209F
:100CD8001EF0040F0CBFEFF30880EFF30980816961
:100CE80011F8021C0229FFD001B5724602F0E1F9A1
:100CF80001BD00BF40B2002807DB044A41090123B7
:100D080000F01F00834042F82130704700E100E006
:100D180040B20028A8BF00F1604001F10101B8BF4E
:100D2800064B4FEA0111ACBF00F5614000F00F001F
:100D3800C9B2B4BF195480F80013704714ED00E02D
:100D4800044B054A23F07F039360BFF34F8FBFF333
:100D58006F8F70470000000800ED00E008B5FFF74E
:100D6800EFFF0B4AD2F8883023F47003C2F88830BA
:100D7800EFF3148323F0040383F31488BFF36F8F16
:100D8800FFF7B4FCFFF7BEFC00F05AF801F06CF96D
:100D980000ED00E042F8203C009B42F81C3C0A4968
:100DA800019B42F8183C029B42F8143C21F00101D7
:100DB8004FF0807342F8043C42F8081C0023203AA4
:100DC80002654367704700BF71060008094A034679
:100DD800906870B113F1160F006E05D0A0F14002B3
:100DE8009A4205D8834203D2814228BF0020704727
:100DF80000207047FC03002008B515460B4A0C4B31
:100E08009060026F1A600E4600F044F82C4686F394
:100E180009880020034B9847204600210022002320
:100E2800014C2047DF30000871060008FC03002051
:100E3800B4020020014B10221A61704700ED00E057
:100E4800044800231021C2180133562B82F80013DE
:100E5800F9D1704700E100E008B5EFF30583064AD1
:100E6800103B02EBC30152F8330049688847BDE8DC
:100E78000840FFF7B7BC00BFA43E0008024B034A76
:100E88000348012100F076B800000220000000208D
:100E980018420008026E054B403A1A60044A402185
:100EA800C3E901121846012100F06EB8B80200200B
:100EB80000000B15084AC2F898000B6823F01F03BE
:100EC800034343F01003C2F89C308B6843F00103DE
:100ED800C2F8A030704700BF00ED00E02DE9F043F4
:100EE800DFF8608085B00E461F4604464FF00009C3
:100EF800B14523DA6068D8B13FB1411E08421BD121
:100F08001F2819D92368194216D12368019302F0C2
:100F1800F6F8A36803430393D8F89050C5F3072560
:100F2800D0B2013DA84207D801A9FFF7C3FF421C70
:100F380009F101090C34DBE76FF01502104605B022
:100F4800BDE8F08300ED00E0044B0522C3F89420CF
:100F5800BFF34F8FBFF36F8F704700BF00ED00E006
:100F6800BFF35F8F024B0022C3F89420704700BF85
:100F780000ED00E010B5034C01232278FFF7AEFF27
:100F8800207010BD2804002008B50B4A00231278F1
:100F9800FFF7A4FF10F1160F07D0084A0021D2F876
:100FA8009030C3F30723984200DB08BDC2F89800CD
:100FB800C2F8A0100130F2E72804002000ED00E09C
:100FC8002DE9F043534B544CD3F890302568C3F3C4
:100FD80007239D4285B000F29A80FFF7C1FF0020E9
:100FE8000C2685421AD14D4C4D4F25706846FFF7A7
:100FF80077FBDFF82081DFF82C9106460025AE420A
:1010080013D1237843490020D1F89020C2F3072256
:10101800934276DBFFF798FF002042E0616806FB09
:101028000011FFF747FF0130DBE7009800EB0511DF
:101038004FEA051CCB683B40B3F5000F48D00AD8EF
:10104800B3F5001F30D0B3F5800F36D0B3F5801F4D
:1010580010D00135D3E7B3F1807F42D0B3F1007FE0
:10106800F7D150F80C3088684A6802F048F840F424
:10107800802009E050F80C3088684A6802F03FF890
:1010880040F0885040F43020CDE901230390D8F88F
:1010980090302078C3F30723013B98422AD96FF098
:1010A800150005B0BDE8F08350F80C3088684A6830
:1010B80002F025F840EA0900E6E750F80C308868A5
:1010C8004A6802F01CF840F0C06040F40030DBE7EA
:1010D80050F80C3088684A6802F011F840F08270C5
:1010E800D2E750F80C3088684A6802F008F840F0F7
:1010F8008870C9E701A9FFF7DDFE23780133237063
:10110800A7E7C1F89830C1F8A00001337CE74FF099
:10111800FF30C6E700ED00E0244200082804002064
:101128000000F0FF0000081108B5024B1B68984743
:10113800002008BDC4020020034B044A18609378BD
:1011480043F0020393707047C4020020040000209B
:1011580008B50649064821F00701C1F1005202F519
:10116800003201F055FF002008BD00BF871600209F
:10117800C802002013B50C4C204602F045FC68B1AB
:101188000A4A92E803006B4683E80300A2681268E3
:101198003AB119462046904702B010BD6FF01200D0
:1011A800FAE76FF05700F7E7383D0008F04100080C
:1011B8001F2809D8012303FA00F0044B5B69984300
:1011C8000CBF01200020704700207047003C014000
:1011D80000F01F021F284FF0010303FA02F39DBF1E
:1011E800024A002053616FF015007047003C01402F
:1011F800044B184400230133994200F8012BFADC10
:10120800704700BF540000202DE9F041104F0546FB
:1012180000264FF001086B78F4B2A34201D8BDE86C
:10122800F0812B781C442046FFF7C2FF68B12046A6
:10123800FFF7CEFF57F834303BB107EBC40204F098
:101248001F04516808FA04F098470136E3E700BF25
:10125800D4020020034660B1B0FA80F2C2F11F0246
:10126800D2B205498856054A11680B431360FFF747
:1012780041BDFF22F5E700BF54000020003C0140BB
:10128800024A136823EA000313607047003C0140D8
:10129800032921D8DFE801F0020C10190F4B9A68D6
:1012A80022EA00029A60DA6822EA0002DA607047ED
:1012B8000A4B9A680243F5E7084BDA680243DA609A
:1012C8009A6822EA00029A607047044B9A680243BF
:1012D8009A60DA681043D860704700BF003C01404C
:1012E80030B5B0B1B0FA80F3C3F11F03DBB20B48DD
:1012F80050F833408C4204D100EBC3056D68954229
:1013080005D044B940F8331000EBC3004260002018
:1013180030BDFF23EBE76FF00F00F9E7D4020020A0
:1013280060B1B0FA80F3C3F11F03DBB2044A0021B5
:1013380042F8331002EBC30251607047FF23F5E710
:10134800D402002000F00302043292000F239340DD
:1013580043EA9000C3B20233054A52F82320030C33
:1013680002EA104093FAA3F3B3FA83F3D840704724
:101378000038014038B50888314BC0F30B000D2800
:101388001B680D4614462CD810B96FF0850027E06D
:1013980001380C28F9D801A252F820F0DD13000812
:1013A80037140008D913000837140008331400084C
:1013B800131400082314000893130008931300085B
:1013C8009313000893130008DD130008DD130008C9
:1013D8004FF4FA4323602968B1F5805F29D20020D1
:1013E80038BD44280ED82F28CFD900F57D61C1F328
:1013F8000B0101228A4013490A42EBD14028C4D18B
:101408005B08E7E7A828E5D0BFE700F0BFF84FF48E
:10141800C072C30853439B08DCE700F0B7F84FF4E9
:10142800C072C3085343DB08D4E7074BD2E7002355
:10143800D0E7C1F313310131B3FBF1F32360CEE7F9
:10144800440000201101100000127A0070B54A4CC7
:101458004A4D00F0BDF8204601F05EFF00F088FC20
:10146800AB68474AC3F30313D35C20FA03F6137837
:101478001C41A64202D2204600F0A8FC2B6843F487
:1014880080232B602B6843F480332B603B4B1A6816
:101498009103FCD55A6F42F001025A675A6F9207BE
:1014A800FCD59A6802F00C02082A17D11A68950729
:1014B80007D41A6842F001021A60304A1368980784
:1014C800FCD52E4B9A6822F003029A609A6812F0B3
:1014D8000C0FFBD19A6822F0F0029A60274D2B6816
:1014E80023F080732B602B689901FCD4254AD2F82D
:1014F800043823F4403343F48033C2F80438D2F874
:10150800043823F0706343F00063C2F8043800F035
:1015180041F82B6843F080732B60184B1A689201CE
:10152800FCD59A6822F0F0029A609A6822F00302C9
:1015380042F002029A609A6802F00C02082AFAD174
:10154800A64202D3204600F041FC0F4B0A4A1A601B
:101558000A4B9A6822F4E05242F480529A609A68E0
:1015680022F460429A60D3F88C2022F08072C3F88B
:101578008C20002070BD00BF00D8B805003802409C
:10158800164A000800300240440000200048704716
:1015980000127A00094B0A495A681140094A0A435D
:1015A8005A605A68084922F4403242F480325A603C
:1015B8005A681140054A0A435A6070470038024089
:1015C8000080BFFF086040000080BFF0086040084E
:1015D800064B1A6C42F080521A641B6C82B003F0FE
:1015E80080530193019B02B0704700BF003802404E
:1015F80008B5074802F008FA38B10648FFF79CFD1D
:101608000448FFF713F8002008BD6FF01200FBE74D
:101618006C3E0008211600080A2838B5074D044614
:1016280004D1AB680D215B6828469847AB6803482E
:101638005B68E1B29847204638BD00BF6C3E0008A1
:101648002DE9F843D0F80480D0F81090D8F80800B5
:1016580017460D461E4601F0B0FDB7F5001F0446BB
:1016680016D12846D8F80840FFF76CFE84420CD102
:10167800294601F0A2FD0446FFF702FE2046FFF7C7
:101688004FFE00212046FFF703FE0020BDE8F88347
:10169800B7F5800F20D0B6F1806F19D0B6F1C06FC2
:1016A80018D0B6F1007F1AD1022610494A462046C2
:1016B800FFF716FEB0B9D8F80810284601F082FDE9
:1016C80020463146FFF7E4FD2046FFF7C3FDDCE77F
:1016D8000126EAE70326E8E76FF08500D6E76FF012
:1016E8001500D3E76FF00F00D0E700BF953500086D
:1016F80038B50369044658600A4D284602F084F953
:1017080060B1AB6861681B680C3123B12846984703
:1017180000EAE07038BD6FF05700F9E76FF012008B
:10172800F8E700BF383D00082DE9F0471E4F044692
:1017380000EBC1060025B44201D1002014E0206866
:10174800C30600F01F0911D4656845F02005C0F3F1
:10175800481AC0F34420192823D857F82080B8F134
:10176800000F0DD16FF01200BDE8F087B9F1100F2E
:1017780004D0B9F1110FEAD16568E8E73025E6E74A
:10178800404602F041F90028ECD04B462A460AF0C0
:101798000F01404601F010FF002804F10804CADADE
:1017A800E2E76FF01500DFE7E442000843681B68D2
:1017B80003F1140252E8002F42F0010203F1140071
:1017C80040E800210029F3D10D4A934207D0A2F541
:1017D8004C42934203D002F55042934203D11A6916
:1017E80042F040021A6103F10C0252E8002F42F461
:1017F800807203F10C0040E800210029F3D1704702
:101808000010014043681B6803F1140252E8002FDE
:1018180022F0010203F1140040E800210029F3D16D
:101828000D4A934207D0A2F54C42934203D002F5E9
:101838005042934203D11A6922F040021A6103F11F
:101848000C0252E8002F22F4807203F10C0040E8E9
:1018580000210029F3D1704700100140F8B50C466B
:10186800036941685D682379012B35D09A1E564279
:101878005641B6026279022A9CBF374F37F812C028
:10188800A27988BF4FF4005C042A28D0003B18BF17
:1018980001231B03E279012A0A680CBF4FF4407741
:1018A8000027A542D1681DD121F4B05131430B4323
:1018B800D360136923F4405343EA0C03136143686C
:1018C8001A68536923F440733B435361296801F054
:1018D80094FF00EAE070F8BD4FF4C066CAE74FF421
:1018E8008053D7E701F4C0618E421FBFD16821F44D
:1018F800C0613143D160426811680A6902F44052FC
:1019080094451FBF0A6922F4405242EA0C020A6158
:1019180042681168CA6802F4805293421FBFCA68BD
:1019280022F480521343CB6043681A68536903F466
:1019380040739F421FBF536923F440733B43536175
:1019480021682B68994205D001F057FF0028C2DBB7
:1019580023682B600020BEE708440008F8B54368F8
:101968001D6803695F680B790C46012B4979A679D4
:1019780035D102294AD9042E45D04FF4C0624FF41C
:1019880080534FF0030C8C453DD1002B77D0002AB3
:1019980014BF03220422B24235D1E37963B1012B8B
:1019A80031D1394B9D4207D0A3F54C439D4203D01A
:1019B80003F550439D4226D1EB6823F40053EB60B6
:1019C8002146FFF74BFF00281DDBEB6843F400536B
:1019D800EB6094E8030087E80300002015E0022B81
:1019E80006D102291FD9042E0DD04FF48062C6E714
:1019F80002290A461FD9042E02D123B90022BEE7C4
:101A080013BB0329C7D06FF08500F8BD1F4A042E09
:101A180032F811C0F7D04FF4C062033B012BF2D962
:101A28004FF4805319E0194A042E32F811C0EAD055
:101A38004FF48062F1E7154A042E32F811C009D13B
:101A4800002BE0D11A46EBE7033B012BDBD9D5E7A6
:101A58000022E2E7002BFBD11A46BCF5805F08D0D4
:101A6800BCF5405F08D0BCF1000F8AD14FF0010CE3
:101A780089E74FF0000C86E74FF0020C83E7002A55
:101A880014BF0222032286E7001001400844000820
:101A98002DE9F3410569476804462E48286001F09E
:101AA800B3FF20B96FF0120002B0BDE8F0812868DA
:101AB800F96883681B68002B46D098470028F3DB39
:101AC800386A01AA002101F08FFD0028ECDB019B98
:101AD800002219791868FFF727FE0028E4DB6668FA
:101AE80023693568D3F80480EB6823F40053EB606E
:101AF800706801F089FF0028D4D0D6E90101836815
:101B0800DB6803B1984705F10C0353E8003F43F045
:101B18000C0305F10C0141E80032002AF3D14146DB
:101B28002046FFF79BFE002811DB337D1BB16B6954
:101B380043F008036B61EB6843F40053EB60204605
:101B48007B6A98470020AFE76FF05700ACE76FF06B
:101B58001500A9E7383D000810B54FF0E0230F49FC
:101B68009C691A6908689B690D4902F4803234B986
:101B780093B903464AB90A681044C01A10BD002B2D
:101B880008BF03460AB9A342F5D90A6802440A60A5
:101B98004FF0E0221269EEE70446F3E7F80300206D
:101BA800F40300200A4B102283F82320094B4FF43A
:101BB80016521A60084B002018604FF0E02342F2DA
:101BC8007F525A6198611A6942F007021A61704798
:101BD80000ED00E0F8030020F4030020684620F040
:101BE80007018D4619B5FFF7B7FF114B1149D3E926
:101BF80000420868001942F10002C3E900020E4AD7
:101C080000230B60D2E900414FF41653001BB0FBD0
:101C1800F3F043431B1941F10001C2E9003100F020
:101C2800CBFEFEF7DFFDBDE819408546704700BFD3
:101C380008010020F4030020000100202DE9F041F4
:101C4800DFF8DC8099B1421C0BD14FF0E022136918
:101C580023F0010313614FF07F43C8F80030BDE85B
:101C6800F081D8F80060012807DC00270BE0431C4E
:101C7800D8F80060F7D140F2D26040F2D3639842BE
:101C8800A8BF1846471EEFF31185102383F3128867
:101C9800BFF36F8FFFF760FF224C4FF0E023996985
:101CA800D4E90023801843F10003C4E900031E4B64
:101CB80000221A601D4B1A68831A2ED44FF4165C42
:101CC8000CFB073303F515533F33B3FBFCF7131A2B
:101CD8000CFB0733B3F5806F154A38BF4FF48063A8
:101CE800934228BF13464FF0E022C8F80030013B6A
:101CF80090695361002393618142A1EB0003D4E909
:101D0800001238BF9B195B1842F10002C4E9003287
:101D180085F31188BFF36F8FA1E74FF48063E2E783
:101D2800F803002008010020F4030020000100202F
:101D380000C3FF0038B5EFF31185102383F3128831
:101D4800BFF36F8F084B1C68084B1B68E41AFFF73A
:101D580003FF85F31188BFF36F8F4FF416532044A8
:101D6800B0FBF3F038BD00BF0801002000010020DF
:101D780008B513498B6803F00C03042B1CD0082BFF
:101D88001CD14A684B68496813F4800314BF0D4896
:101D98000D48C1F3881118BF002302F03F02A1FBD0
:101DA8000001FEF7F5F9064B5B68C3F30143013305
:101DB8005B00B0FBF3F008BD0248FCE70248FAE715
:101DC8000038024000127A000024F400002876D07F
:101DD8003C4B1A6802F44042B2F5404F20D13A4ACF
:101DE800904215D8394A904207D91A6802F44042FD
:101DF800B2F5004F5CD102201FE0354A90421A68C4
:101E080002F4404247D9B2F5004F4CD1012014E00A
:101E18001A6802F44042B2F5004F3FD103200CE0AB
:101E28001A6802F44042B2F5004F22D1274A904284
:101E38003ED8274A90422ED90020224B1B68012801
:101E480038BF012003F44043B3F5804F1FD0214A27
:101E5800136823F0070303431360136803F00703B1
:101E680098421CBF136803F00703C01A18BF01206B
:101E780070471B6803F44043B3F5804F0CD1134BF4
:101E880098421AD8124B98424FF00000DFD9012827
:101E980038BF0120DBE71B680020D8E71B68032058
:101EA80003F44043D0E71B68012003F44043CBE729
:101EB8001B68022003F44043C6E70220C7E701205D
:101EC800704700BF00700040804A5D050090D00355
:101ED80080C3C901003C024038B5EFF311851023D7
:101EE80083F31288BFF36F8F064B9C6801F09FFD48
:101EF80085F31188BFF36F8F2046BDE83840FEF7A1
:101F0800A1BE00BFFC03002038B50A4B53F820409F
:101F1800013053F82050A54200D838BD606830B170
:101F2800037EDB0701D401F057FD0834F3E723688B
:101F38009847FAE7F043000870B52A4B2A4C2B4D16
:101F4800012286B003201A70FFF7DEFF00F0ACFD17
:101F58000420FFF7D9FF2646AE4204F1300410D31F
:101F680000F04EFA204C224EAC4226D300F05CFA28
:101F780000F0FDFF1F4A137B23F00103137306B023
:101F880070BD54F80C3C059354F8103C049354F875
:101F9800143C039354F8183C029354F81C3C0193E6
:101FA80054F8203C009354E90A2354E90C0100F04A
:101FB800C1F854F8303C5E65CDE7D4E90A23B3F1A3
:101FC800FF3F08BFB2F1FF3F05D052EA0301206886
:101FD80003D100F0E5FA3034C6E73146183000F096
:101FE8005BFCF8E72904002054410008544100082C
:101FF800CF3A00089001002070B5002386B0012276
:10200800CDE90423134E144D01930F22CDE902327A
:102018001249142303FB005506EBC01604464FF47F
:10202800C07000FB04110E4B00954FF4A0723046AF
:1020380000F080F8737B0B4AEE6023F0040373739F
:102048004FF4046304FB033313442C746B6006B031
:1020580070BD00BF10010020FC030020C01000204C
:102068003D3A000880080020BFB50020FFF74CFF6C
:10207800284B83F30888284C284F636943F400737E
:1020880063610025F02384F82230E57725766576AC
:10209800A57684F82050636A43F4E0236362FEF770
:1020A800A1FDFEF7C7FE4FF0FF33A362E362FEF720
:1020B80087FFFEF7E3FE1A481A4C00F0B3F8FEF764
:1020C800F7FA0120FFF720FF0220FFF71DFF00F0BD
:1020D800DFF9154B15495C61154B05930123CDE9D3
:1020E80003534FF480623B46CDE9015500952046E5
:1020F80000F020F8627B064622F004022046627354
:1021080001F0B5FC2846FFF777FF3A4631462046EE
:10211800FEF772FEC010002000ED00E0411F00082D
:102128001002002090010020FC0300204012002033
:10213800264A00082DE9F043073285B022F007024D
:102148000E461F461099017300F158037F32C0E90B
:1021580016330446002322F03F02042183604173B2
:102168003F2A0F98A073C4E90633E37306F14009C8
:10217800A2F1400805D883F31188BFF36F8F084692
:1021880002DFB51829462046FEF70CFB07300E9BE8
:1021980020F00700A066C4E9189802930D9B0193EC
:1021A8002D1A0C9B00932A463B4631462046FEF7E3
:1021B800F1FD00236365044B9B6803B1DB6EE366A6
:1021C800284605B0BDE8F083FC030020F0B587B0D1
:1021D80000250595109D04950F9D03950E9D02956C
:1021E800DDE912760D9D01950C9D00950446FFF7DB
:1021F800A1FFB6F1FF3F08BFB7F1FF3F05D056EA90
:10220800070305D1204600F0CBF9204607B0F0BD02
:102218003A46334604F11800014900F03DFBF4E763
:10222800CF3A000840F2011383810023C0E9183334
:10223800C366014B98607047FC030020094A936805
:102248006FF00A019967084958674B6843F0805353
:102258004B60002383F31188BFF36F8F9368986FE7
:10226800704700BFFC03002000ED00E070B590F956
:102278000D20437B002A36DBD90634D11B4C63F092
:102288007F032246437352F8183FE169934207D10E
:10229800C0E900210860E06111E09942F8D01B68AC
:1022A800002BF5D090F90E5093F90E60B542F4D09A
:1022B800AE42F2DD5968C0E9003108605860A5698E
:1022C800954200D005B9E568A3685A7BD20604D1C7
:1022D800DA897F2A01D9AA6932B1AB4202D02846ED
:1022E80000F056FA656170BD6361FCE7FC030020ED
:1022F80038B590F90D20437B002A014604DA03F033
:102308007F03437301F0A1FB0D4D2A46AB6852F8D9
:10231800184F944200D004B9EC688B4207D05A7B1E
:10232800D20604D1DA897F2A01D9A2692AB1A34247
:1023380002D0204600F02CFA23466B6138BD00BF5E
:10234800FC03002038B5194CA168E0690B6881428C
:1023580014BF1A46002249680B605960A368E169F6
:102368002AB9134AC3E900210B60E3610CE093F931
:102378000E0092F90E50A84214D0854212DD516821
:10238800C3E900210B605360A569094B9D4200D049
:1023980005B9E568A3689D4202D0284600F0F8F91F
:1023A800656138BD9142DCD01268D9E7FC03002092
:1023B8001404002049B9EFF3058030B9054B5A6978
:1023C8009B689A4201D0FFF739BF81F31188BFF3A8
:1023D8006F8F7047FC030020034648B9EFF305826E
:1023E80032B9064A51699268914201D0FFF726BF77
:1023F80083F31188BFF36F8F704700BFFC03002081
:10240800EFF31181102383F31288BFF36F8F054B0D
:102418009A68D37B013BD37381F31188BFF36F8F25
:10242800704700BFFC03002070B5EFF3118610233E
:1024380083F31288BFF36F8F144DAB68DA7B0132D8
:10244800DA732A4652F8184F944200D004B9EC685F
:102458005A7BD20604D1DA897F2A01D9A2692AB126
:10246800A34202D0204600F093F923466B6186F31D
:102478001188BFF36F8FEFF31180102383F3128855
:10248800BFF36F8FBDE87040FFF7A6BFFC030020C5
:10249800024B03F11802C3E906227047FC0300202F
:1024A80070B5EFF31186102383F31288BFF36F8F93
:1024B8001B4CA168E0690B68814214BF1A460022D0
:1024C80049680B605960A368E1692AB9154AC3E9EC
:1024D80000210B60E3610CE093F90E0092F90E50B5
:1024E800A84218D0854216DD5168C3E900210B6067
:1024F8005360A5690B4B9D4200D005B9E568A368F8
:102508009D4202D0284600F043F965613046BDE897
:102518007040FFF793BE8A42D8D01268D5E700BF53
:10252800FC03002014040020F8B550EA0103064615
:102538000C4603D1FFF7B4FF0020F8BDEFF3118775
:10254800102383F31288BFF36F8F124D124BA868C4
:102558001860FFF7CDFEA8681049234632461830A8
:1025680000F09AF9AA68537B43F0040353730446B6
:102578003846FFF763FEAB68D3E90A23B3F1004F8F
:1025880008BF002AD8D101F000FB201A20EAE07029
:10259800D3E700BFFC0300201C040020CF3A00084A
:1025A80038B50446EFF31185102383F31288BFF37F
:1025B8006F8F437B5B070FD5183001F0BEFA637B42
:1025C80023F0040320466373FFF750FE29460548AD
:1025D800BDE83840FFF7EEBE85F31188BFF36F8F73
:1025E80038BD00BF2A040020014B9868704700BF1F
:1025F800FC0300202DE9F8430446077BEFF311851F
:10260800102383F31288BFF36F8F437B190705D517
:1026180085F31188BFF36F8FBDE8F883D90943F0BC
:1026280008025DD14273A36813B1204601F015FA80
:1026380004F1180001F081FAA66D04F15808B045BC
:1026480011D04FF0000976B1304601F006FA06F1D4
:10265800180001F072FAC6F878903046FFF706FEC7
:10266800A66DB045EFD1DFF8C080D8F808309C429D
:102678003ED1EFF30589B9F1000918BF4FF0010900
:10268800D8F81860294A964200D00EB9D8F80C60DC
:10269800B34202D0304600F07BF82046C8F81460F8
:1026A80000F016FDB9F1000F02D02148FFF7BAFD7E
:1026B800D8F808309C4231D1EFF3058373BB227BF5
:1026C800D20718D42846FFF7B9FDFB07A4D5002385
:1026D80083F31188BFF36F8F0423184602DF9BE74B
:1026E80003F07F0343F00803437301F0AEF99AE760
:1026F8004FF00009C4E785F31188BFF36F8F83F3A8
:102708001188BFF36F8F0423184602DFEFF311809F
:10271800102383F31288BFF36F8FD4E785F31188F2
:10272800BFF36F8FD1E700BFFC0300201404002023
:1027380010020020044BC01A044BC0105843044B2D
:1027480001221A54704700BF90020020ABAAAAAA1F
:102758002A040020C3897F2B12D80A4B1B6863B157
:10276800094B90F90E201B689A4209DB437BDB0674
:1027780006D1064BC31A18BF012303F001007047A6
:102788000023FAE748000020200400201001002060
:1027980070B50E4B0E4C1E7C06EB460304EBC304CF
:1027A8000546204601F0C9F90A4B002228469A55E9
:1027B800FFF7D0FF48B1084B08491A68013A20468C
:1027C800D317BDE8704000F067B870BDFC03002067
:1027D800900200202A040020480000203D2700081D
:1027E80038B5EFF31185102383F31288BFF36F8F89
:1027F8000F4B104A9C681068A04206D1FFF7C8FF2B
:1028080085F31188BFF36F8F38BD00211B7C1160E1
:10281800094AD35C002BF3D02046FFF79BFF002822
:10282800EED0637BDB0601D1FFF78CFD2046E5E7A0
:10283800FC0300201C0400202A040020024B186816
:10284800984208BF002070474C000020034B1B68CB
:102858000BB9FFF76FBA0020704700BF24040020AF
:1028680030B570B10B4B5B6898420AD0036843B12E
:10287800D3E90421D0E90445121941EB0501C3E964
:102888000421D0E9003213605A600023C0E9003304
:1028980030BD00BF4C000020B3F1FF3F08BFB2F1CC
:1028A800FF3F2DE9F84F0446994615461F467AD052
:1028B8008160EFF31188102383F31288BFF36F8FC1
:1028C800B9F1000FDFF8E4A020DBFFF7BFFFDAE97A
:1028D8000027013549F100092D1849EBE073C4E9D7
:1028E8000453AD18064643EB07074FF00109FFF7FD
:1028F800A5FFDFF8BCE0DEF804A00346EBB9C4E9A5
:1029080000EACAF80040CEF8044028E0DAE90012EC
:102918006FF001035B1A4FF0FF3161EB02025B1BA2
:1029280062EB0902012B72F10001BCBF01230022F6
:10293800C0E904324FF00009D9E7D3E9041CD4E90F
:1029480004208A4270EB0C0B24DA891A5A686CEB63
:102958000000C3E90410C4E9003214605C60FFF7AA
:102968006DFF84420ED1134B1B685BB9B9F1000FA0
:1029780002D1FFF76BFF0646304601F0C7F8002189
:10298800FFF75CF988F31188BFF36F8F2846394643
:10299800BDE8F88F521A60EB0C009A45C4E9042090
:1029A800ADD01B68AAE700252F46EFE7A802002054
:1029B8004C000020240400202DE9F047EFF3118596
:1029C800102383F31288BFF36F8FDFF8A490DFF82A
:1029D800A480C9F80000FFF731FF00260027D9F8C6
:1029E8000030D8E900ECD91750B1D0E90442A3422D
:1029F80071EB020A1CDAE41A62EB0102C0E9044234
:102A080013EB0E034FF000044CEB01012046C8E91C
:102A18000031C9F8004001F079F82146FFF70EF9B6
:102A280085F31188BFF36F8FBDE8F047FFF7D8BE75
:102A380014EB0E024CEBE473C0E90467C8E9002309
:102A4800FFF70EFF85F31188BFF36F8F83689847F0
:102A5800EFF31185102383F31288BFF36F8FD9F832
:102A680000301B1BC9F80030FFF7E8FEB7E700BFCE
:102A780024040020A802002010B5EFF311841023CD
:102A880083F31288BFF36F8FFFF7E0FE054A034612
:102A9800D2E90001181841EBE37184F31188BFF300
:102AA8006F8F10BDA8020020014800F0F0BA00BFE7
:102AB8002B4A00082DE9F04F8DB0436802938378C4
:102AC80015469A07804640F10D8100240E78002EA5
:102AD80000F00A81252E0BD04B1C03930134029B76
:102AE8004146304698470028C0F2F6800399EDE742
:102AF8004E788B1C252E0393F0D00027B946BB4691
:102B0800BBF11F0F38D8A6F12003102B0AD8DFE835
:102B180003F02A0909300909092109090928092D99
:102B280009091F00A6F13003092B33D92A2E37D102
:102B38001BF0400F55F8043B40F08280002BA7BFE4
:102B48004BF0200B9946C3F100094BF0280B01E02C
:102B58004BF0010B039B13F8016B0393002ECFD1AD
:102B680030E04BF0020B4BF0040BF3E74BF0080B93
:102B7800F0E74BF0100BEDE7BBF17F0F19D8A6F18A
:102B88003003092BD2D81BF0400F03D00A2101FBD8
:102B98000737DFE70A2101FB09394BF0200BD9E79A
:102BA8002E2E06D11BF0400F40F09E804BF0400BBC
:102BB800D0E76C2E31D02BD8682E36D06A2E3CD078
:102BC8004C2E3AD0002F46F02003B8BF2BF040021D
:102BD800A3F16501BCBF1FFA82FB0027022901D9B6
:102BE800612B2FD1073525F00705DFF8ACA2083592
:102BF80007271BF0080F66D00AEB070B56465E4501
:102C080063D1A4EB0A0A06EB0A02A9EB07096FE1F4
:102C1800742E9FD07A2E9DD0D4E71BF0800F18BF5A
:102C28004BF4007B4BF0800B94E71BF4807F18BFBC
:102C38004BF4007B4BF4807B8CE74BF4207B89E7DB
:102C48001F4687E7A6F16301122900F2F080DFE84A
:102C580011F013004F00EE00EE00EE00EE004F0002
:102C6800EE00EE00EE00EE00EE00FE00E900EE00E1
:102C7800EE001B00EE00AF0055F8043B8DF818304D
:102C880001270DF1180AB4E755F804AB834BBAF1E4
:102C9800000F08BF9A461BF0400F14BF39464FF08B
:102CA800FF31504600F08BFF0746A2E7029B4146E2
:102CB8002020984700280FDB013EB742F6D34C444A
:102CC800A41BB14698E74E46F7E716F8010B029B9E
:102CD80041469847002892DA98F8023043F00403F6
:102CE80088F802304FF0FF3420460DB0BDE8F08F71
:102CF8001BF0800F34D01BF4007F2CD0073525F053
:102D08000705AA4669685AF8080B2BF01005002930
:102D1800ADB237DA404261EB410145F480650DF10F
:102D2800180B0A235A4600F056FFA0EB0B03019339
:102D38006B0662D5019B25F001019F4289B240F3E1
:102D4800A180002E00F0998015F0100240F09C80C0
:102D5800BB460D4623E0AA465AF8040BC117D4E730
:102D6800AA461BF4807F5AF8041B01D10846F5E7F0
:102D78001BF4007F15BF48B208B241F3C01141F3FC
:102D8800C031C2E750EA0103C9D11BF0400FC6D0D9
:102D9800002FC4D12BF0110295B2BB46019740F227
:102DA800064115EA01021CBF0BF1010B00222CE0C1
:102DB8002BF010021FFA82FB0A231BF0800C49D06B
:102DC8001BF400711DBF073525F00705AA46AA4662
:102DD8001ABF5AF8080B69685AF8040B50EA01053B
:102DE80045D12BF016051BF0400FADB242D0002F95
:102DF80040D12BF0170295B2019715F0100248D078
:102E0800019B002E42D103F1010B29075AD4EB078D
:102E180006D5D9456FDD0199A9EB0B035F18CB46A1
:102E28005B4649E04BF0100B10237826C5E7782B5A
:102E380004D1C6F1780343F01003BEE7029B414674
:102E4800252098470028FFF647AF023447E60823B5
:102E58000026B2E7AA461BF480715AF8040BBDD0CD
:102E68001BF400711ABFC0B2614680B2B6E72BF0FE
:102E7800060295B20DF1180B54E725F01105ADB215
:102E8800BB468CE70D46B8E73B460D4603F1020BFF
:102E9800BBE7DDF804B082E76D4A0008664A00081F
:102EA800CDE904324146029B202098470028FFF6CE
:102EB80013AF049B059A01339945F1DCA4EB0B0190
:102EC800CC189B460AB3029B4146302098470028FD
:102ED800FFF602AF8EB901342744019B391B994292
:102EE80024DC1D465DBB019AA9EB0B09224455461B
:102EF8001446914435E0019F92E70234414630463A
:102F0800029B98470028E7DAE6E640F206410D42C0
:102F1800E2D015F0020F14BF2B20202015F4806F8B
:102F280004F10104414618BF2D20E9E7029B414600
:102F380030209847002804F10104CEDACCE606AB2D
:102F4800013D4146585D029B98470028CADAC3E60E
:102F5800029B414620209847002804F10104FFF60F
:102F6800BBAEA9EB0403002BF2DCBFE5704708B544
:102F7800FDF712FBFDF736FB002142F2107000F05E
:102F8800A6FDF9E70A2180FB010100F0A0BD70B49D
:102F980003460C46DA880068197922430569866871
:102FA8002B6801248C4012F0010F14BF2343A34364
:102FB8002B60336870BC184700EBC100408840089C
:102FC8007047F8B50346FFF7F7FFB0FA80F0C0F195
:102FD8001F0003EB800CCA00DCF81060171D0C46BC
:102FE80006328DB256B9012101FA00F0D9680143C1
:102FF800D960CCF81040DD539D52F8BDF100043182
:10300800585AD85303EBC0009E52C5805D52F4E76E
:10301800043A2DE9F041CC1D114424F0070421F0B5
:1030280007010E1BF708B7FA87F2C2F12405AD00B5
:103038004FF000080735C2F12002ED080460414650
:10304800A760C4F80C80920004F1100000F0AFFDF6
:103058006B0043F00103638004EBC5027B1B59003E
:10306800A4F800805180A21924F83550A2F80280F3
:10307800A35304EBC70329465A8842F001025A8039
:103088002046BDE8F041FFF79CBF002070470FB411
:1030980007B504A951F8040B0191FDF7CDFA03B067
:1030A8005DF804EB04B07047704700F080BD00F095
:1030B80070BD01460068FDF741BB08B5FDF76EFB22
:1030C800BDE80840FDF78EBB00210120FDF736BBA7
:1030D8006FF08500704761B662B680F31188BFF360
:1030E8006F8F704772B6002383F31188BFF36F8F19
:1030F800BFF34F8F30BF62B6BFF36F8F7047202882
:1031080009D9B0F1004F08D80138B0FA80F0C0F101
:103118001F0040007047082070473E20704708B5E0
:10312800FEF702F8002008BD08B50622012100209C
:10313800FEF75EF8002211460620FDF7E9FD0121A1
:1031480008460722FEF754F8002211460720FDF72B
:10315800DFFD082201210220FEF74AF8002211466D
:103168000820FDF7D5FD092201210320FEF740F8CC
:10317800002211460920FDF7CBFD0A220121042077
:10318800FEF736F8002211460A20FDF7C1FD052199
:1031980008461722FEF72CF8002211461720FDF7E3
:1031A800B7FD282206210A20FEF722F80022114640
:1031B8002820FDF7ADFD002008BD01F01F0101200A
:1031C8008840704700F00302043292000F239340B6
:1031D80043EA900010B5C3B29B0003F1804303F5A6
:1031E8009C33020C9C6892FAA2F2B2FA82F224EAA8
:1031F800104091400143996010BD0B88C3F30B0345
:1032080003F57D62C2F30B02782A82B014D803F169
:10321800804303F50E3348681A6802431A600B8826
:10322800C3F30B0303F1804303F50E3300201B683F
:103238000193019B02B070476FF08500FAE70B8895
:10324800C3F30B0303F57D62C2F30B02782A9FBF19
:1032580003F1804303F50E3349681A689DBF8A431A
:1032680000201A606FF0850070470D2809D843F2D6
:10327800EA03C34013F0010F14BF00206FF085006C
:1032880070476FF08500704738B50888C0F30B00A9
:10329800FFF7EBFF002822DB4868FF281ED082B228
:1032A800C0F3415502F1804202F50E320135012387
:1032B800AB401468C0F30440013B834024EA030395
:1032C800136049688BB203F1804303F50E330A0E8D
:1032D8001868C1F304418A4002431A60002038BDCF
:1032E8000888C0F30B0008B500F57D63C3F30B0332
:1032F800782B0AD800F1804000F50E304B68026840
:10330800934314BF0120022008BDFFF7AEFF002839
:1033180014BF01200220F7E7704743685B681B6908
:103328000B600020704743685B68586942400A4058
:1033380042405A610020704743685B6800209961E9
:10334800704743685B6809049961002070474368C7
:103358005B685A69514059610020704710B503698C
:103368009868F8B1884219D1DC6808689860A14269
:1033780000D1D860002008602AB19A680A60DA682B
:10338800996002B9D960002010E0814206D108682E
:103398002060D8688142EDD1DC60EBE70446006824
:1033A8000028F2D1002AE8D16FF0150010BDF0B561
:1033B80044680120676888401E46C2F3801327EAE4
:1033C80000078B403B43636090FAA0F7B7FA87F792
:1033D800D4F808C04FF0030E7F000EFA07F72CEA66
:1033E800070C90FAA0F7B7FA87F7C2F3C1137F006A
:1033F800BB4043EA0C03A36090FAA0F3B3FA83F34B
:10340800E7685B000EFA03F327EA030790FAA0F3D4
:10341800B3FA83F302F030055B00C2F341229A400D
:103428003A43202DE26016D107292BD890FAA0F351
:10343800226A2BB3B3FA83F39B000F2101FA03F33B
:1034480022EA030290FAA0F3B3FA83F39B0006FA88
:1034580003F31343236290FAA0F3B3FA83F32268C9
:1034680090FAA0F05B000321B0FA80F02D0901FA70
:1034780003F3400022EA030385401D432560F0BDA5
:103488002B46D9E7030A616A93FAA3F282B1B2FA2A
:1034980082F292000F2793FAA3F3B3FA83F307FAA1
:1034A80002F29B0021EA02029E4016436662D2E7BE
:1034B8002A46EEE712F4003CF8B505460C461346DA
:1034C8001DD0960714D550075DD55022D90611D5C1
:1034D80042F4007203F4C061B1F5806F42D0B1F5D7
:1034E800C06F19D0B1F5007F18D142F0800215E005
:1034F8001022EBE79F06EDD542F48062EAE7D60397
:1035080005D5D00605D4C2F340129202E2E7302274
:10351800E0E74FF40072DDE742F4C07213F440377D
:103528002E6908D0306920FA04F1C9075FBF01216C
:10353800A14001433161BCF1000F06D0180314D536
:10354800696801234968A3408B61686800232146A4
:10355800FFF72DFF27B9336923FA04F2D2070CD4F9
:103568000020F8BD42F48072D8E75903EDD5012157
:10357800A1402846FFF7E5FEE7E70122A24023EA3B
:1035880002033361ECE76FF08500EAE770B50B469C
:103598008968054611B15E680C6801B970BD8A6812
:1035A8002A4002D04B68304698471CB12368214610
:1035B8001C46F2E72346FAE7F8B51F46044640687A
:1035C8000E461546FFF7F3FE112F07D101212B05F3
:1035D80001FA06F104D563685B6899610020F8BDBB
:1035E8002046FFF7AEFEF9E730B5036813600579AA
:1035F800046804EBC504A34202D36FF0010030BD98
:103608005C798C4201D00833F0E70020F7E7436883
:10361800C1F34B101B6801F01F01C05801238B40F8
:10362800034214BF0123002313700020704710B514
:103638004368C1F34B101A6801F01F018458012335
:103648008B4023438350002010BD10B54368C1F35D
:103658004B14186801F01F01235801228A4023EAFD
:1036680002032350002010BD38B504460D46FFF76D
:10367800DEFF29462046FFF7E8FF002038BD82B06C
:1036880003680193019B43680193019B02B0704753
:1036980008B54368186802680368D9070368C2F365
:1036A800C00248BF42F002029B07036848BF42F0CD
:1036B80004025907036848BF42F02002DB0542BFF5
:1036C8006FF4807342F008020360D10701D5FFF759
:1036D800D6FF930701D5FFF7D2FF510701D5FFF7B2
:1036E800CEFF930601D5FFF7CAFF104608BD436811
:1036F8001A6802F10C0353E8003F43F0400302F15B
:103708000C0040E800310029F3D1704743681A687B
:1037180002F10C0353E8003F23F0400302F10C00D0
:1037280040E800310029F3D1704743681B681868E6
:1037380010F080001CBFD868C0F380107047436841
:103748001B681868C0F38010704743681A6802F154
:103758000C0353E8003F43F0200302F10C0040E85B
:1037680000310029F3D1704743681A6802F10C034D
:1037780053E8003F23F0200302F10C0040E8003139
:103788000029F3D1704743681B681868C0F34010DC
:10379800704743681B681A68910602D5DA68920672
:1037A80007D4186810F0400004D0D868C0F380101F
:1037B800704701207047012070470369C3E902126E
:1037C8007047026993680BB1D1681847704708B50C
:1037D800002225201146FDF79BFABDE80840252068
:1037E800FDF788BA08B5002226201146FDF790FAA1
:1037F800BDE808402620FDF77DBA37B54368026961
:103808001C680D4619B96FF0150003B030BD10687B
:10381800D9688368DB6803B301AA98470028F4DBFA
:10382800E368019923F400431920E360AA00AB0F71
:10383800A1FB0001FCF7ACFC6422B0FBF2F102FB37
:1038480011031B013233B3FBF2F303EB01130F2B0C
:10385800D9D99BB2A3600020D7E76FF05700D4E70F
:1038680010B543681B6810201A681206FCD5EFF3E0
:10387800118280F31288BFF36F8F1C68240604D46A
:1038880082F31188BFF36F8FEEE7596082F31188D6
:10389800BFF36F8F10BD08B54368186803681A072F
:1038A80001D5FFF7ECFE03689B0643BF43680B7026
:1038B80000204FF0FF3008BD10B543681868C46891
:1038C800C36814F4805403D013F4C06F12D00024DA
:1038D800131B002B02DD03689B0601D4204610BD94
:1038E80043680B5503681B0704F10104F0D5FFF783
:1038F800C6FEEDE76FF08504F0E730B543681B6856
:10390800DC68D868E40402D510F4C06F1AD01868CF
:1039180010F080000ED0EFF31184102080F312888D
:10392800BFF36F8F0020151A002D04DC84F3118873
:10393800BFF36F8F30BD1D682D06F7D50D5C5D6038
:103948000130F0E76FF08500F4E703695B681B68F6
:103958000B6043681B68DB6803F4C063B3F5806FD2
:103968002FD0A3F5C06CDCF1000343EB0C030B7103
:1039780043681B681B6903F44053B3F5805F22D08A
:10398800B3F5405F21D0002B0CBF012303234B71FB
:1039980043681B68DA68DB68D20403F4C06316D591
:1039A800002B14BF032304238B7143681B685B69D6
:1039B80003F44073A3F5407253425341CB71002086
:1039C80070470223D3E70023E1E70223DFE7002B58
:1039D80014BF02230323E7E710B5436904463BB944
:1039E8000020E268537843F001035370404210BD51
:1039F80098470028F4D00028B8BF4042E368FF2861
:103A0800A8BFFF201870ECE740B1C368587810F0E1
:103A180001001EBF1878B0FA80F040097047EFF334
:103A28001183102383F31288BFF36F8FFEE708B565
:103A3800FFF7F5FF08B51024EFF3118384F312881C
:103A4800BFF36F8FFFF74EFBF6E7D0E90032136044
:103A58005A600023C0E90033704708B5FFF7F5FF47
:103A6800437B23F0020343730023836008BD10B532
:103A7800EFF31184102383F31288BFF36F8FFEF7DF
:103A8800F5FB84F31188BFF36F8F10BD10B50146A5
:103A9800EFF31184102383F31288BFF36F8F437BF6
:103AA80013F0280F0AD183680BB1FFF7D6FF4B7BC1
:103AB80023F004034B730846FEF7D8FB84F3118800
:103AC800BFF36F8F10BD01211838FFF7DFBF38B57E
:103AD80004460D46FEF728FDB5F1FF3F08BFB4F1D7
:103AE800FF3F0346204610D013F109004FEAE37167
:103AF80041F100010A220023FCF74AFBB0F1004F14
:103B080071F1000128BF6FF0004038BD08B50246CA
:103B1800FEF794FE70B1D0E904319B1A61EBE272B2
:103B2800B3F1004F72F1000104DA002AACBF184665
:103B3800002008BD6FF00040FBE738B50246EFF300
:103B48001185102383F31288BFF36F8F0368CBB1FD
:103B5800FEF774FE04461046FEF782FE00224FF080
:103B680000438442C0E9042306D1FEF76FFEFFF745
:103B7800CDFF0021FEF762F8002085F31188BFF31E
:103B88006F8F38BD6FF01500F7E708B5FEF774FFC3
:103B980008BD0A44914200F1FF3300D1704710B5C7
:103BA80011F8014B03F8014F9142F9D110BD0244BD
:103BB8000346934200D1704703F8011BF9E710B59B
:103BC800024601448A42134603D01C780132002C75
:103BD800F8D1181A10BDF0B5C3F137070446FFB283
:103BE80003F01F031046082BE6B233D0102B3ED04B
:103BF8006508A40844EA817445EAC1752D194FEA9D
:103C0800910242EB5102290941EA02716D1842EB17
:103C18001212290A41EA02616D1842EB1222290C9C
:103C280041EA02416D1842EB1242AD1842F100021E
:103C3800EC0844EA4274D10804EB8402A6EB42057E
:103C4800EDB2092D0CD90134A5F10A0541F10001A5
:103C5800EDB212E0E40844EA417406F00705C90829
:103C6800303554EA010200F8015BBCD1F0BD2409EB
:103C780044EA017406F00F050909092D84BFED19FE
:103C8800EDB2EDE70148006870470000B40200207B
:083C980034C5FF7F01000000AC
:103CA00000000000383D0008A506000800000000E4
:103CB00000000000543D000800000000343E0008F1
:103CC00000000000183E000800000000503E000800
:103CD00000000000703D000800000000FC3D0008EE
:103CE00000000000E03D000800000000C43D0008A6
:103CF00000000000A83D0008000000008C3D000806
:103D00003131000800000000000000006C3E000897
:103D100000000000883E0008F915000800000000BF
:103D2000AD1B000800000000591100080000000051
:083D30008504000800000000FA
:103D3800684900080000000088410008660000206B
:103D4800000000005514000800000000E5490008C4
:103D58004C4300087841000878000020000000006B
:103D680000000000000000003C49000800000000BE
:103D78000000000064000020000000007D11000821
:103D8800000000007549000844420008544100083A
:103D98006800002054030020F91600080000000005
:103DA8008349000858420008544100086A0000206E
:103DB80068030020F9160008000000009149000877
:103DC8006C420008544100086C0000207C0300206D
:103DD800F9160008000000009F490008804200080A
:103DE800544100086E00002090030020F9160008D6
:103DF80000000000AD490008944200085441000842
:103E080070000020A4030020F9160008000000003C
:103E1800BB490008A842000854410008720000206D
:103E2800B8030020F916000800000000C94900087E
:103E3800BC4200085441000874000020CC03002054
:103E4800F916000800000000D7490008D042000811
:103E58005441000876000020E0030020F91600080D
:103E680000000000F649000850430008A44100087B
:103E78007A00002014000020991A000800000000B1
:103E8800064A0008A0430008A44100087C0000205E
:0C3E98002C000020991A00080000000017
:103EA40000000000D130000800000000D1300008FC
:103EB40000000000D130000800000000D1300008EC
:103EC40000000000D130000800000000D1300008DC
:103ED400664900081112000864490008111200081C
:103EE4006249000811120008604900081112000814
:103EF4005E4900081112000800000000D1300008DB
:103F040000000000D130000800000000D13000089B
:103F140000000000D130000800000000D13000088B
:103F240000000000D130000800000000D13000087B
:103F340000000000D130000800000000D13000086B
:103F440000000000D130000800000000D13000085B
:103F540000000000D13000085C490008111200087C
:103F640000000000D130000800000000D13000083B
:103F740000000000D130000800000000D13000082B
:103F840000000000D130000800000000D13000081B
:103F940000000000D130000800000000D13000080B
:103FA40000000000D130000800000000D1300008FB
:103FB40000000000D130000800000000D1300008EB
:103FC40000000000D1300008883E0008CB3700080C
:103FD4006C3E0008CB37000800000000D130000818
:103FE4005A4900081112000800000000D1300008EE
:103FF40000000000D130000800000000D1300008AB
:1040040000000000D130000800000000D13000089A
:1040140000000000D130000800000000D13000088A
:1040240000000000D130000800000000D13000087A
:1040340000000000D130000800000000D13000086A
:1040440000000000D130000800000000D13000085A
:1040540000000000D130000800000000D13000084A
:1040640000000000D130000800000000D13000083A
:1040740000000000D130000800000000D13000082A
:1040840000000000D130000800000000D13000081A
:1040940000000000D130000800000000D13000080A
:1040A40000000000D130000800000000D1300008FA
:1040B40000000000D130000800000000D1300008EA
:1040C40000000000D130000800000000D1300008DA
:1040D40000000000D130000800000000D1300008CA
:1040E40000000000D130000800000000D1300008BA
:1040F40000000000D130000800000000D1300008AA
:1041040000000000D130000800000000D130000899
:1041140000000000D130000800000000D130000889
:1041240000000000D130000800000000D130000879
:1041340000000000D130000800000000D130000869
:1041440000000000D130000800000000D130000859
:10415400BD340008233300082F330008413300081E
:104164004B3300085733000849160008653300082C
:044174000000000047
:10417800173600083736000853360008713600082D
:104188000332000847320008000000007D130008D1
:0C419800E932000800000000913200082D
:1041A4009F38000869380008993600086519000826
:1041B4005339000803390008C1380008F7360008ED
:1041C40015370008333700085337000871370008E3
:1041D400473700088F370008B51700080D18000886
:0C41E4009B370008BF370008C3370008F5
:1041F0004400000000400000343E00080D000000B4
:10420000503E000805000000343E00080E0001008A
:10421000183E00080D000100000000200000000012
:1042200000000B06020000002C42000800000008FD
:104230002D4900082400020600000020354900082E
:1042400020000B11FFFF0000001C024007000000CF
:104250003000000080000000FFFF00000018024056
:10426000060000003000000040000000FFFF0000DA
:104270000014024005000000300000002000000093
:10428000FFFF0000001002400400000030000000AA
:1042900010000000FFFF0000000C024003000000BF
:1042A0003000000008000000FFFF0000000802408E
:1042B000020000003000000004000000FFFF0000CA
:1042C0000004024001000000300000000200000075
:1042D000FFFF00000000024000000000300000006E
:1042E00001000000503E0008343E0008183E00085F
:1042F000FC3D0008E03D0008C43D0008A83D000862
:104300008C3D0008000000000000000000000000DC
:10431000000000000000000000000000000000009D
:10432000000000000000000000000000000000008D
:10433000000000000000000000000000000000007D
:1043400000000000000000000000000000380240F3
:1043500000440040543D0008110400007843000868
:10436000010000000000000000000000000000004C
:1043700080430008ED370008400000000000020004
:10438000884300080100000090430008020000007C
:10439000470000000002000067000000000000006D
:1043A00000100140543D000884040000C843000888
:1043B00001000000000000000000000000000000FC
:1043C000D0430008D7370008440000001000000068
:1043D000D843000801000000E0430008020000008C
:1043E000270100000002000047010000000000005B
:1043F000A03C0008A03C0008203D0008283D000823
:10440000383D0008383D00080010000000306920E9
:10441000616D206E6F6465206D6375206D6F6475CE
:104420006C650A00535731204750494F206E6F7416
:104430002072656164790A00535732204750494F12
:10444000206E6F742072656164790A004C454430B7
:10445000204750494F206E6F742072656164790A5D
:10446000004C454431204750494F206E6F742072F4
:10447000656164790A004661696C656420746F2027
:10448000636F6E666967757265205357310A00461F
:1044900061696C656420746F20636F6E666967750F
:1044A0007265205357320A004661696C6564207456
:1044B0006F20636F6E666967757265204C45443086
:1044C0000A004661696C656420746F20636F6E66D4
:1044D0006967757265204C4544310A004750494F61
:1044E00020696E697469616C697A6174696F6E20A4
:1044F000646F6E652E0A00256300554152543120C9
:104500006E6F74207265616479210A0055415254BE
:10451000312049525120656E61626C65642E0A003B
:1045200072302F61313A20203078253038782020C1
:1045300072312F61323A20203078253038782020AF
:1045400072322F61333A20203078253038780A00D3
:1045500072332F61343A2020307825303878207239
:1045600031322F69703A2020307825303878207227
:1045700031342F6C723A20203078253038780A0098
:1045800020787073723A20203078253038780A000D
:104590004661756C74696E6720696E7374727563B9
:1045A00074696F6E20616464726573732028723160
:1045B000352F7063293A203078253038780A005535
:1045C0006E68616E646C6564204952516E3A2025B4
:1045D000640A002A2A2A2A2A204D5055204641558D
:1045E0004C54202A2A2A2A2A0A0020205374616364
:1045F0006B696E67206572726F722028636F6E74CC
:104600006578742061726561206D696768742062E5
:1046100065206E6F742076616C6964290A00202021
:10462000556E737461636B696E67206572726F7229
:104630000A00202044617461204163636573732024
:1046400056696F6C6174696F6E0A0020204D4D468B
:10465000415220416464726573733A203078257842
:104660000A002020496E737472756374696F6E203E
:104670004163636573732056696F6C6174696F6E13
:104680000A002020466C6F6174696E672D706F6937
:104690006E74206C617A7920737461746520707215
:1046A00065736572766174696F6E206572726F7280
:1046B0000A002A2A2A2A2A205553414745204641E2
:1046C000554C54202A2A2A2A2A0A00202044697696
:1046D0006973696F6E206279207A65726F0A0020B3
:1046E00020556E616C69676E6564206D656D6F72D3
:1046F00079206163636573730A0020204E6F206325
:104700006F70726F636573736F7220696E7374720A
:10471000756374696F6E730A002020496C6C65675D
:10472000616C206C6F6164206F66204558435F5256
:10473000455455524E20696E746F2050430A002034
:1047400020496C6C6567616C20757365206F66200D
:1047500074686520455053520A00202041747465E6
:104760006D707420746F206578656375746520754D
:104770006E646566696E656420696E7374727563D4
:1047800074696F6E0A002A2A2A2A2A204255532069
:104790004641554C54202A2A2A2A2A0A002020530E
:1047A0007461636B696E67206572726F720A0020B4
:1047B000205072656369736520646174612062755D
:1047C00073206572726F720A0020204246415220A7
:1047D000416464726573733A20307825780A00204A
:1047E00020496D707265636973652064617461202E
:1047F000627573206572726F720A002020496E73B1
:104800007472756374696F6E20627573206572725D
:104810006F720A005265736572766564204578632D
:10482000657074696F6E20280053707572696F75BA
:104830007320696E746572727570742028495251C4
:104840002000535053454C20696E20746872656196
:1048500064206D6F646520646F6573206E6F7420D3
:10486000696E646963617465205053500A002A2A96
:104870002A2A2A2048415244204641554C54202A95
:104880002A2A2A2A0A002020427573206661756C44
:1048900074206F6E20766563746F72207461626C31
:1048A0006520726561640A00202044656275672096
:1048B0006576656E740A0020204661756C7420650B
:1048C0007363616C6174696F6E2028736565206223
:1048D000656C6F77290A00415243485F455843454C
:1048E0005054207769746820726561736F6E20255B
:1048F000780A0A002A2A2A2A2A2044656275672033
:104900006D6F6E69746F7220657863657074696F1E
:104910006E202A2A2A2A2A0A002A2A2A2A2A202516
:104920007320256429202A2A2A2A2A0A00464C4173
:1049300053485F30005352414D5F3000696E7465DB
:1049400072727570742D636F6E74726F6C6C6572B9
:10495000403430303133633030000A06050504013D
:1049600003010201010100017263634034303032FF
:1049700033383030006770696F4034303032316323
:104980003030006770696F40343030323138303049
:10499000006770696F403430303231343030006736
:1049A00070696F40343030323130303000677069B8
:1049B0006F403430303230633030006770696F40A0
:1049C0003430303230383030006770696F40343006
:1049D000303230343030006770696F4034303032FC
:1049E000303030300072657365742D636F6E747291
:1049F0006F6C6C65720073657269616C4034303045
:104A000030343430300073657269616C403430305A
:104A100031313030300000000000000000000102A1
:104A20000304060708096D61696E002A2A2A2042DC
:104A30006F6F74696E67205A6570687972204F5382
:104A4000206275696C642076342E332E302D32301E
:104A500032352D6761313937306562643266343200
:104A6000202A2A2A0A00286E756C6C29002A666C96
:084A70006F61742A00000000D0
:104A78009330000800000000273100080000000003
:104A880000000000000000002400002000000000DA
:104A98000000000000C20100000103000000000047
:104AA8003C000020000000000000000000C20100DF
:104AB800000103000024F400C80000004C0000209E
:104AC8004C000020FFFFFFFFFFFFFFFFFFFFFFFF7E
:044AD800FFFFFFFFDE
:104ADC0000000000000000000000000000000000CA
:0C4AEC00000000000000000000000000BE
:044AF80015E015E0D0
:0400000508000C19CA
:00000001FF
